:100000000C942A001895000018950000189500001F
:10001000189500001895000018950000189500002C
:10002000189500001895000018950000189500001C
:10003000189500001895000018950000189500000C
:1000400018950000189500001895000018950000FC
:10005000189500008FE58DBFC8E3E0E24E2E84E0E6
:100060008EBFD4E0F4E05F2EA89584B7082E877F7A
:1000700084BF88E1992781BD91BDEEEFF3E0A0E652
:10008000B0E088278D933197E9F766248FEF84BB22
:100090008FEF81BB8FEF8ABBB89880E090E0A0E63D
:1000A000B0E08D939C9380E090E0A2E6B0E08D9369
:1000B0009C9380E090E0A4E6B0E08D939C93C09A7E
:1000C000C09BFECFA0E6B0E00D911C910A3050E03D
:1000D00015070CF402C00C944302A0E6B0E00D91A9
:1000E0001C91003050E0150711F00C947B000E9429
:1000F00045020C94F700A0E6B0E00D911C91013090
:1001000050E0150711F00C9489000E944D020C94E8
:10011000F700A0E6B0E00D911C91023050E0150709
:1001200011F00C9497000E9455020C94F700A0E681
:10013000B0E00D911C91033050E0150711F00C94C4
:10014000A5000E945D020C94F700A0E6B0E00D91BE
:100150001C91043050E0150711F00C94B3000E947C
:1001600065020C94F700A0E6B0E00D911C910530FB
:1001700050E0150711F00C94C1000E946D020C9420
:10018000F700A0E6B0E00D911C91063050E0150795
:1001900011F00C94CF000E9475020C94F700A0E6B9
:1001A000B0E00D911C91073050E0150711F00C9450
:1001B000DD000E947D020C94F700A0E6B0E00D91F6
:1001C0001C91083050E0150711F00C94EB000E94D0
:1001D00085020C94F700A0E6B0E00D911C91093067
:1001E00050E0150711F00C94F7000E948D0280E09A
:1001F00090E0A2E6B0E08D939C93A2E6B0E00D9172
:100200001C910A3050E015070CF402C00C943D021A
:10021000A2E6B0E00D911C91003050E0150711F0FE
:100220000C9416010E9495020C949201A2E6B0E093
:100230000D911C91013050E0150711F00C94240130
:100240000E949D020C949201A2E6B0E00D911C91D7
:10025000023050E0150711F00C9432010E94A50203
:100260000C949201A2E6B0E00D911C91033050E095
:10027000150711F00C9440010E94AD020C949201FC
:10028000A2E6B0E00D911C91043050E0150711F08A
:100290000C944E010E94B5020C949201A2E6B0E0CB
:1002A0000D911C91053050E0150711F00C945C0184
:1002B0000E94BD020C949201A2E6B0E00D911C9147
:1002C000063050E0150711F00C946A010E94C50237
:1002D0000C949201A2E6B0E00D911C91073050E021
:1002E000150711F00C9478010E94CD020C94920134
:1002F000A2E6B0E00D911C91083050E0150711F016
:100300000C9486010E94D5020C949201A2E6B0E002
:100310000D911C91093050E0150711F00C949201D9
:100320000E94DD0280E090E0A4E6B0E08D939C9313
:10033000A4E6B0E00D911C910A3050E015070CF4D2
:1003400002C00C943702A4E6B0E00D911C9100307D
:1003500050E0150711F00C94B1010E94E5020C94D5
:100360002D02A4E6B0E00D911C91013050E015077C
:1003700011F00C94BF010E94ED020C942D02A4E632
:10038000B0E00D911C91023050E0150711F00C9473
:10039000CD010E94F5020C942D02A4E6B0E00D916F
:1003A0001C91033050E0150711F00C94DB010E9402
:1003B000FD020C942D02A4E6B0E00D911C910430D6
:1003C00050E0150711F00C94E9010E9405030C940C
:1003D0002D02A4E6B0E00D911C91053050E0150708
:1003E00011F00C94F7010E940D030C942D02A4E669
:1003F000B0E00D911C91063050E0150711F00C94FF
:1004000005020E9415030C942D02A4E6B0E00D91A4
:100410001C91073050E0150711F00C9413020E9454
:100420001D030C942D02A4E6B0E00D911C91083040
:1004300050E0150711F00C9421020E9425030C9442
:100440002D02A4E6B0E00D911C91093050E0150793
:1004500011F00C942D020E942D03A4E6B0E00E943E
:10046000350384EF91E00E9445030C949801A2E6C5
:10047000B0E00E9435030C94FD00A0E6B0E00E94BD
:1004800035030C946200F894FFCFA89AA99AAA9A0F
:10049000AB9AAC9AAD9AAE980895A99AAA9AA898E0
:1004A000AB98AC98AD98AE980895A89AA99AAE9AD0
:1004B000AC9AAB9AAA98AD980895A89AA99AAE9AC0
:1004C000AA9AAB9AAC98AD980895A99AAA9AAE9AAE
:1004D000AD9AA898AB98AC980895A89AAD9AAE9AA0
:1004E000AA9AAB9AA998AC980895A89AAD9AAE9A90
:1004F000AA9AAB9AAC9AA9980895A89AA99AAA9A86
:10050000AB98AC98AD98AE980895A89AA99AAA9A73
:10051000AB9AAC9AAD9AAE9A0895A89AA99AAE9A57
:10052000AD9AAA9AAB98AC980895909A919A929A9B
:10053000939A949A959A96980895919A929A9098E7
:1005400093989498959896980895909A919A969AD7
:10055000949A939A929895980895909A919A969AC7
:10056000929A939A949895980895919A929A969AB5
:10057000959A9098939894980895909A959A969AA7
:10058000929A939A919894980895909A959A969A97
:10059000929A939A949A91980895909A919A929A8D
:1005A00093989498959896980895909A919A929A7B
:1005B000939A949A959A969A0895909A919A969A5F
:1005C000959A929A939894980895D89AD99ADA9A83
:1005D000DB9ADC9ADD9ADE980895D99ADA9AD8984F
:1005E000DB98DC98DD98DE980895D89AD99ADE9A3F
:1005F000DC9ADB9ADA98DD980895D89AD99ADE9A2F
:10060000DA9ADB9ADC98DD980895D99ADA9ADE9A1C
:10061000DD9AD898DB98DC980895D89ADD9ADE9A0E
:10062000DA9ADB9AD998DC980895D89ADD9ADE9AFE
:10063000DA9ADB9ADC9AD9980895D89AD99ADA9AF4
:10064000DB98DC98DD98DE980895D89AD99ADA9AE2
:10065000DB9ADC9ADD9ADE9A0895D89AD99ADE9AC6
:10066000DD9ADA9ADB98DC980895ED91FC91EF5FC2
:10067000FF4FFC93EE9308953197F1F70895689436
:1006800062F80895E89462F80895EF93FF93EE27D7
:10069000E82BE92B31F0E0EDF7E03197F1F7019726
:0806A000D1F7FF91EF910895DD
:00000001FF
